{
  "contractName": "TicTacToe",
  "abi": [
    {
      "inputs": [],
      "name": "admin",
      "outputs": [
        {
          "internalType": "address payable",
          "name": "",
          "type": "address"
        }
      ],
      "stateMutability": "view",
      "type": "function",
      "constant": true
    },
    {
      "inputs": [],
      "name": "gameCount",
      "outputs": [
        {
          "internalType": "uint256",
          "name": "",
          "type": "uint256"
        }
      ],
      "stateMutability": "view",
      "type": "function",
      "constant": true
    },
    {
      "inputs": [
        {
          "internalType": "uint256",
          "name": "",
          "type": "uint256"
        }
      ],
      "name": "games",
      "outputs": [
        {
          "internalType": "uint256",
          "name": "gameId",
          "type": "uint256"
        },
        {
          "internalType": "address payable",
          "name": "player1",
          "type": "address"
        },
        {
          "internalType": "address payable",
          "name": "player2",
          "type": "address"
        },
        {
          "internalType": "uint256",
          "name": "betAmount",
          "type": "uint256"
        },
        {
          "internalType": "uint256",
          "name": "movesCount",
          "type": "uint256"
        },
        {
          "internalType": "address",
          "name": "lastMoveBy",
          "type": "address"
        },
        {
          "internalType": "address payable",
          "name": "winner",
          "type": "address"
        },
        {
          "internalType": "bool",
          "name": "gameOver",
          "type": "bool"
        },
        {
          "internalType": "bool",
          "name": "isSettled",
          "type": "bool"
        }
      ],
      "stateMutability": "view",
      "type": "function",
      "constant": true
    },
    {
      "inputs": [
        {
          "internalType": "uint256",
          "name": "_bet",
          "type": "uint256"
        }
      ],
      "name": "initializeGame",
      "outputs": [],
      "stateMutability": "payable",
      "type": "function",
      "payable": true
    },
    {
      "inputs": [
        {
          "internalType": "uint256",
          "name": "_gameId",
          "type": "uint256"
        }
      ],
      "name": "getBoard",
      "outputs": [
        {
          "internalType": "uint8[]",
          "name": "board",
          "type": "uint8[]"
        }
      ],
      "stateMutability": "view",
      "type": "function",
      "constant": true
    },
    {
      "inputs": [
        {
          "internalType": "uint256",
          "name": "_gameId",
          "type": "uint256"
        }
      ],
      "name": "startPlay",
      "outputs": [],
      "stateMutability": "payable",
      "type": "function",
      "payable": true
    },
    {
      "inputs": [
        {
          "internalType": "uint256",
          "name": "_gameId",
          "type": "uint256"
        },
        {
          "internalType": "uint8",
          "name": "pos",
          "type": "uint8"
        }
      ],
      "name": "takeTurn",
      "outputs": [],
      "stateMutability": "nonpayable",
      "type": "function"
    },
    {
      "inputs": [
        {
          "internalType": "uint256",
          "name": "_id",
          "type": "uint256"
        }
      ],
      "name": "settleGame",
      "outputs": [],
      "stateMutability": "payable",
      "type": "function",
      "payable": true
    }
  ],
  "bytecode": "0x6080604052336000806101000a81548173ffffffffffffffffffffffffffffffffffffffff021916908373ffffffffffffffffffffffffffffffffffffffff160217905550600060015534801561005557600080fd5b506123f7806100656000396000f3fe60806040526004361061007b5760003560e01c8063783344f81161004e578063783344f814610149578063ee58794114610172578063f53d69f21461018e578063f851a440146101aa5761007b565b8063117a5b9014610080578063312d7bbc146100c557806345e09e54146100e15780634d1975b41461011e575b600080fd5b34801561008c57600080fd5b506100a760048036038101906100a29190611a69565b6101d5565b6040516100bc99989796959493929190611ec8565b60405180910390f35b6100df60048036038101906100da9190611a69565b6102bd565b005b3480156100ed57600080fd5b5061010860048036038101906101039190611a69565b61062f565b6040516101159190611d2b565b60405180910390f35b34801561012a57600080fd5b506101336108d0565b6040516101409190611ead565b60405180910390f35b34801561015557600080fd5b50610170600480360381019061016b9190611a92565b6108d6565b005b61018c60048036038101906101879190611a69565b610e36565b005b6101a860048036038101906101a39190611a69565b611253565b005b3480156101b657600080fd5b506101bf6114d7565b6040516101cc9190611d10565b60405180910390f35b60026020528060005260406000206000915090508060000154908060010160009054906101000a900473ffffffffffffffffffffffffffffffffffffffff16908060020160009054906101000a900473ffffffffffffffffffffffffffffffffffffffff16908060040154908060050154908060060160009054906101000a900473ffffffffffffffffffffffffffffffffffffffff16908060070160009054906101000a900473ffffffffffffffffffffffffffffffffffffffff16908060070160149054906101000a900460ff16908060070160159054906101000a900460ff16905089565b3373ffffffffffffffffffffffffffffffffffffffff1660008054906101000a900473ffffffffffffffffffffffffffffffffffffffff1673ffffffffffffffffffffffffffffffffffffffff161461034b576040517f08c379a000000000000000000000000000000000000000000000000000000000815260040161034290611ded565b60405180910390fd5b600154811115610390576040517f08c379a000000000000000000000000000000000000000000000000000000000815260040161038790611d4d565b60405180910390fd5b6000600260008381526020019081526020016000209050600115158160070160149054906101000a900460ff161515146103ff576040517f08c379a00000000000000000000000000000000000000000000000000000000081526004016103f690611e0d565b60405180910390fd5b600015158160070160159054906101000a900460ff16151514610457576040517f08c379a000000000000000000000000000000000000000000000000000000000815260040161044e90611dcd565b60405180910390fd5b600073ffffffffffffffffffffffffffffffffffffffff168160070160009054906101000a900473ffffffffffffffffffffffffffffffffffffffff1673ffffffffffffffffffffffffffffffffffffffff161461051f578060070160009054906101000a900473ffffffffffffffffffffffffffffffffffffffff1673ffffffffffffffffffffffffffffffffffffffff166108fc349081150290604051600060405180830381858888f19350505050158015610519573d6000803e3d6000fd5b5061060e565b8060010160009054906101000a900473ffffffffffffffffffffffffffffffffffffffff1673ffffffffffffffffffffffffffffffffffffffff166108fc60023461056a9190611ff5565b9081150290604051600060405180830381858888f19350505050158015610595573d6000803e3d6000fd5b508060020160009054906101000a900473ffffffffffffffffffffffffffffffffffffffff1673ffffffffffffffffffffffffffffffffffffffff166108fc6002346105e19190611ff5565b9081150290604051600060405180830381858888f1935050505015801561060c573d6000803e3d6000fd5b505b60018160070160156101000a81548160ff0219169083151502179055505050565b6060600154821115610676576040517f08c379a000000000000000000000000000000000000000000000000000000000815260040161066d90611d4d565b60405180910390fd5b60006002600084815260200190815260200160002060405180610140016040529081600082015481526020016001820160009054906101000a900473ffffffffffffffffffffffffffffffffffffffff1673ffffffffffffffffffffffffffffffffffffffff1673ffffffffffffffffffffffffffffffffffffffff1681526020016002820160009054906101000a900473ffffffffffffffffffffffffffffffffffffffff1673ffffffffffffffffffffffffffffffffffffffff1673ffffffffffffffffffffffffffffffffffffffff168152602001600382018054806020026020016040519081016040528092919081815260200182805480156107c257602002820191906000526020600020906000905b82829054906101000a900460ff1660ff168152602001906001019060208260000104928301926001038202915080841161078b5790505b5050505050815260200160048201548152602001600582015481526020016006820160009054906101000a900473ffffffffffffffffffffffffffffffffffffffff1673ffffffffffffffffffffffffffffffffffffffff1673ffffffffffffffffffffffffffffffffffffffff1681526020016007820160009054906101000a900473ffffffffffffffffffffffffffffffffffffffff1673ffffffffffffffffffffffffffffffffffffffff1673ffffffffffffffffffffffffffffffffffffffff1681526020016007820160149054906101000a900460ff161515151581526020016007820160159054906101000a900460ff16151515158152505090508060600151915050919050565b60015481565b60015482111561091b576040517f08c379a000000000000000000000000000000000000000000000000000000000815260040161091290611d4d565b60405180910390fd5b6000600260008481526020019081526020016000209050600015158160070160149054906101000a900460ff1615151461098a576040517f08c379a000000000000000000000000000000000000000000000000000000000815260040161098190611e2d565b60405180910390fd5b8060010160009054906101000a900473ffffffffffffffffffffffffffffffffffffffff1673ffffffffffffffffffffffffffffffffffffffff163373ffffffffffffffffffffffffffffffffffffffff161480610a3757508060020160009054906101000a900473ffffffffffffffffffffffffffffffffffffffff1673ffffffffffffffffffffffffffffffffffffffff163373ffffffffffffffffffffffffffffffffffffffff16145b610a76576040517f08c379a0000000000000000000000000000000000000000000000000000000008152600401610a6d90611e8d565b60405180910390fd5b3373ffffffffffffffffffffffffffffffffffffffff168160060160009054906101000a900473ffffffffffffffffffffffffffffffffffffffff1673ffffffffffffffffffffffffffffffffffffffff161415610b09576040517f08c379a0000000000000000000000000000000000000000000000000000000008152600401610b0090611d8d565b60405180910390fd5b6000816003018360ff1681548110610b4a577f4e487b7100000000000000000000000000000000000000000000000000000000600052603260045260246000fd5b90600052602060002090602091828204019190069054906101000a900460ff1660ff1614610bad576040517f08c379a0000000000000000000000000000000000000000000000000000000008152600401610ba490611d6d565b60405180910390fd5b60003373ffffffffffffffffffffffffffffffffffffffff168260010160009054906101000a900473ffffffffffffffffffffffffffffffffffffffff1673ffffffffffffffffffffffffffffffffffffffff1614610c30578160020160009054906101000a900473ffffffffffffffffffffffffffffffffffffffff16610c56565b8160010160009054906101000a900473ffffffffffffffffffffffffffffffffffffffff165b905060003373ffffffffffffffffffffffffffffffffffffffff168360010160009054906101000a900473ffffffffffffffffffffffffffffffffffffffff1673ffffffffffffffffffffffffffffffffffffffff1614610cb8576002610cbb565b60015b905080836003018560ff1681548110610cfd577f4e487b7100000000000000000000000000000000000000000000000000000000600052603260045260246000fd5b90600052602060002090602091828204019190066101000a81548160ff021916908360ff16021790555060018360050154610d389190611f9f565b8360050181905550338360060160006101000a81548173ffffffffffffffffffffffffffffffffffffffff021916908373ffffffffffffffffffffffffffffffffffffffff1602179055506005836005015410610e0457610d9d8360000154826114fb565b15610e0357818360070160006101000a81548173ffffffffffffffffffffffffffffffffffffffff021916908373ffffffffffffffffffffffffffffffffffffffff16021790555060018360070160146101000a81548160ff0219169083151502179055505b5b600983600501541415610e2f5760018360070160146101000a81548160ff0219169083151502179055505b5050505050565b3373ffffffffffffffffffffffffffffffffffffffff1660008054906101000a900473ffffffffffffffffffffffffffffffffffffffff1673ffffffffffffffffffffffffffffffffffffffff161415610ec5576040517f08c379a0000000000000000000000000000000000000000000000000000000008152600401610ebc90611dad565b60405180910390fd5b60008111610f08576040517f08c379a0000000000000000000000000000000000000000000000000000000008152600401610eff90611e4d565b60405180910390fd5b60016000815480929190610f1b9061208d565b919050555060405180610140016040528060015481526020013373ffffffffffffffffffffffffffffffffffffffff168152602001600073ffffffffffffffffffffffffffffffffffffffff168152602001600967ffffffffffffffff811115610fae577f4e487b7100000000000000000000000000000000000000000000000000000000600052604160045260246000fd5b604051908082528060200260200182016040528015610fdc5781602001602082028036833780820191505090505b508152602001828152602001600081526020013373ffffffffffffffffffffffffffffffffffffffff168152602001600073ffffffffffffffffffffffffffffffffffffffff168152602001600015158152602001600015158152506002600060015481526020019081526020016000206000820151816000015560208201518160010160006101000a81548173ffffffffffffffffffffffffffffffffffffffff021916908373ffffffffffffffffffffffffffffffffffffffff16021790555060408201518160020160006101000a81548173ffffffffffffffffffffffffffffffffffffffff021916908373ffffffffffffffffffffffffffffffffffffffff160217905550606082015181600301908051906020019061110192919061197b565b506080820151816004015560a0820151816005015560c08201518160060160006101000a81548173ffffffffffffffffffffffffffffffffffffffff021916908373ffffffffffffffffffffffffffffffffffffffff16021790555060e08201518160070160006101000a81548173ffffffffffffffffffffffffffffffffffffffff021916908373ffffffffffffffffffffffffffffffffffffffff1602179055506101008201518160070160146101000a81548160ff0219169083151502179055506101208201518160070160156101000a81548160ff02191690831515021790555090505060008054906101000a900473ffffffffffffffffffffffffffffffffffffffff1673ffffffffffffffffffffffffffffffffffffffff166108fc349081150290604051600060405180830381858888f1935050505015801561124f573d6000803e3d6000fd5b5050565b3373ffffffffffffffffffffffffffffffffffffffff1660008054906101000a900473ffffffffffffffffffffffffffffffffffffffff1673ffffffffffffffffffffffffffffffffffffffff1614156112e2576040517f08c379a00000000000000000000000000000000000000000000000000000000081526004016112d990611dad565b60405180910390fd5b600154811115611327576040517f08c379a000000000000000000000000000000000000000000000000000000000815260040161131e90611d4d565b60405180910390fd5b60006002600083815260200190815260200160002090503373ffffffffffffffffffffffffffffffffffffffff168160010160009054906101000a900473ffffffffffffffffffffffffffffffffffffffff1673ffffffffffffffffffffffffffffffffffffffff1614156113d1576040517f08c379a00000000000000000000000000000000000000000000000000000000081526004016113c890611e6d565b60405180910390fd5b600015158160070160149054906101000a900460ff16151514611429576040517f08c379a000000000000000000000000000000000000000000000000000000000815260040161142090611e2d565b60405180910390fd5b338160020160006101000a81548173ffffffffffffffffffffffffffffffffffffffff021916908373ffffffffffffffffffffffffffffffffffffffff16021790555060008054906101000a900473ffffffffffffffffffffffffffffffffffffffff1673ffffffffffffffffffffffffffffffffffffffff166108fc349081150290604051600060405180830381858888f193505050501580156114d2573d6000803e3d6000fd5b505050565b60008054906101000a900473ffffffffffffffffffffffffffffffffffffffff1681565b6000806040518061010001604052806040518060600160405280600060ff168152602001600160ff168152602001600260ff1681525081526020016040518060600160405280600360ff168152602001600460ff168152602001600560ff1681525081526020016040518060600160405280600660ff168152602001600760ff168152602001600860ff1681525081526020016040518060600160405280600060ff168152602001600360ff168152602001600660ff1681525081526020016040518060600160405280600160ff168152602001600460ff168152602001600760ff1681525081526020016040518060600160405280600260ff168152602001600560ff168152602001600860ff1681525081526020016040518060600160405280600060ff168152602001600460ff168152602001600860ff1681525081526020016040518060600160405280600660ff168152602001600460ff168152602001600260ff1681525081525090506001548411156116af576040517f08c379a00000000000000000000000000000000000000000000000000000000081526004016116a690611d4d565b60405180910390fd5b600060026000868152602001908152602001600020905060008160030180548060200260200160405190810160405280929190818152602001828054801561173c57602002820191906000526020600020906000905b82829054906101000a900460ff1660ff16815260200190600101906020826000010492830192600103820291508084116117055790505b5050505050905060005b60088160ff16101561196c576000848260ff1660088110611790577f4e487b7100000000000000000000000000000000000000000000000000000000600052603260045260246000fd5b602002015190508660ff1683826000600381106117d6577f4e487b7100000000000000000000000000000000000000000000000000000000600052603260045260246000fd5b602002015160ff1681518110611815577f4e487b7100000000000000000000000000000000000000000000000000000000600052603260045260246000fd5b602002602001015160ff161480156118b357508660ff168382600160038110611867577f4e487b7100000000000000000000000000000000000000000000000000000000600052603260045260246000fd5b602002015160ff16815181106118a6577f4e487b7100000000000000000000000000000000000000000000000000000000600052603260045260246000fd5b602002602001015160ff16145b801561194557508660ff1683826002600381106118f9577f4e487b7100000000000000000000000000000000000000000000000000000000600052603260045260246000fd5b602002015160ff1681518110611938577f4e487b7100000000000000000000000000000000000000000000000000000000600052603260045260246000fd5b602002602001015160ff16145b1561195857600195505050505050611975565b508080611964906120d6565b915050611746565b50600093505050505b92915050565b82805482825590600052602060002090601f01602090048101928215611a115791602002820160005b838211156119e257835183826101000a81548160ff021916908360ff16021790555092602001926001016020816000010492830192600103026119a4565b8015611a0f5782816101000a81549060ff02191690556001016020816000010492830192600103026119e2565b505b509050611a1e9190611a22565b5090565b5b80821115611a3b576000816000905550600101611a23565b5090565b600081359050611a4e81612393565b92915050565b600081359050611a63816123aa565b92915050565b600060208284031215611a7b57600080fd5b6000611a8984828501611a3f565b91505092915050565b60008060408385031215611aa557600080fd5b6000611ab385828601611a3f565b9250506020611ac485828601611a54565b9150509250929050565b6000611ada8383611d01565b60208301905092915050565b611aef81612038565b82525050565b611afe81612026565b82525050565b6000611b0f82611f65565b611b198185611f7d565b9350611b2483611f55565b8060005b83811015611b55578151611b3c8882611ace565b9750611b4783611f70565b925050600181019050611b28565b5085935050505092915050565b611b6b8161204a565b82525050565b6000611b7e601083611f8e565b9150611b898261215e565b602082019050919050565b6000611ba1601783611f8e565b9150611bac82612187565b602082019050919050565b6000611bc4602183611f8e565b9150611bcf826121b0565b604082019050919050565b6000611be7602b83611f8e565b9150611bf2826121ff565b604082019050919050565b6000611c0a601583611f8e565b9150611c158261224e565b602082019050919050565b6000611c2d602383611f8e565b9150611c3882612277565b604082019050919050565b6000611c50601e83611f8e565b9150611c5b826122c6565b602082019050919050565b6000611c73601783611f8e565b9150611c7e826122ef565b602082019050919050565b6000611c96601383611f8e565b9150611ca182612318565b602082019050919050565b6000611cb9601983611f8e565b9150611cc482612341565b602082019050919050565b6000611cdc601383611f8e565b9150611ce78261236a565b602082019050919050565b611cfb81612076565b82525050565b611d0a81612080565b82525050565b6000602082019050611d256000830184611ae6565b92915050565b60006020820190508181036000830152611d458184611b04565b905092915050565b60006020820190508181036000830152611d6681611b71565b9050919050565b60006020820190508181036000830152611d8681611b94565b9050919050565b60006020820190508181036000830152611da681611bb7565b9050919050565b60006020820190508181036000830152611dc681611bda565b9050919050565b60006020820190508181036000830152611de681611bfd565b9050919050565b60006020820190508181036000830152611e0681611c20565b9050919050565b60006020820190508181036000830152611e2681611c43565b9050919050565b60006020820190508181036000830152611e4681611c66565b9050919050565b60006020820190508181036000830152611e6681611c89565b9050919050565b60006020820190508181036000830152611e8681611cac565b9050919050565b60006020820190508181036000830152611ea681611ccf565b9050919050565b6000602082019050611ec26000830184611cf2565b92915050565b600061012082019050611ede600083018c611cf2565b611eeb602083018b611ae6565b611ef8604083018a611ae6565b611f056060830189611cf2565b611f126080830188611cf2565b611f1f60a0830187611af5565b611f2c60c0830186611ae6565b611f3960e0830185611b62565b611f47610100830184611b62565b9a9950505050505050505050565b6000819050602082019050919050565b600081519050919050565b6000602082019050919050565b600082825260208201905092915050565b600082825260208201905092915050565b6000611faa82612076565b9150611fb583612076565b9250827fffffffffffffffffffffffffffffffffffffffffffffffffffffffffffffffff03821115611fea57611fe9612100565b5b828201905092915050565b600061200082612076565b915061200b83612076565b92508261201b5761201a61212f565b5b828204905092915050565b600061203182612056565b9050919050565b600061204382612056565b9050919050565b60008115159050919050565b600073ffffffffffffffffffffffffffffffffffffffff82169050919050565b6000819050919050565b600060ff82169050919050565b600061209882612076565b91507fffffffffffffffffffffffffffffffffffffffffffffffffffffffffffffffff8214156120cb576120ca612100565b5b600182019050919050565b60006120e182612080565b915060ff8214156120f5576120f4612100565b5b600182019050919050565b7f4e487b7100000000000000000000000000000000000000000000000000000000600052601160045260246000fd5b7f4e487b7100000000000000000000000000000000000000000000000000000000600052601260045260246000fd5b7f496e76616c69642047616d652049442e00000000000000000000000000000000600082015250565b7f506f736974696f6e20416c72656164792054616b656e2e000000000000000000600082015250565b7f43616e6e6f742074616b652032207475726e20636f6e73656375746976656c7960008201527f2e00000000000000000000000000000000000000000000000000000000000000602082015250565b7f436f6e7472616374204f776e65722063616e6e6f74207374617274206f72207060008201527f6c617920612067616d652e000000000000000000000000000000000000000000602082015250565b7f47616d6520616c726561647920736574746c65642e0000000000000000000000600082015250565b7f4f6e6c7920436f6e7472616374204f776e65722063616e20736574746c65206760008201527f616d650000000000000000000000000000000000000000000000000000000000602082015250565b7f43616e6e6f7420736574746c6520756e66696e69736865642047616d652e0000600082015250565b7f47616d6520616c726561647920636f6e636c7564656421000000000000000000600082015250565b7f496e76616c69642062657420616d6f756e742e00000000000000000000000000600082015250565b7f596f752061726520616c726561647920706c6179657220312e00000000000000600082015250565b7f4e6f7420612076616c696420706c617965722e00000000000000000000000000600082015250565b61239c81612076565b81146123a757600080fd5b50565b6123b381612080565b81146123be57600080fd5b5056fea26469706673582212204c10921bda90cbeebe57ff113741afa07a19c7f78000b629b861a561ad06ded664736f6c63430008040033",
  "immutableReferences": {},
  "source": "// SPDX-License-Identifier: MIT\r\n\r\npragma solidity >=0.8.0;\r\n\r\ncontract TicTacToe {\r\n\r\n    // admin will be the one to deploy this contract and also address used to store bet amount while game continues\r\n    address payable public admin = payable(msg.sender);\r\n\r\n    struct Game {\r\n        uint gameId;\r\n        address payable player1;\r\n        address payable player2;\r\n        uint8[] gameBoard;            // [0, 0, 0, 0, 0 , 0, 0, 0, 0]  which represents all boxes are empty at first\r\n        uint betAmount;\r\n        uint movesCount;              // will be initialized to 0 at time of initialization\r\n        address lastMoveBy;           // will be initialized to the one initializing game, so that second player get first turn\r\n        address payable winner;\r\n        bool gameOver;\r\n        bool isSettled;\r\n    }\r\n\r\n    uint public gameCount = 0;\r\n    mapping(uint => Game) public games;\r\n\r\n    function initializeGame (uint _bet) public payable {\r\n        require(admin!=msg.sender, \"Contract Owner cannot start or play a game.\");\r\n        require(_bet > 0, \"Invalid bet amount.\");\r\n        gameCount ++;\r\n        games[gameCount] = Game(gameCount, payable(msg.sender), payable(address(0)), \r\n                                new uint8[](9), _bet, 0, msg.sender, \r\n                                payable(address(0)), false, false\r\n                            );\r\n        admin.transfer(msg.value);\r\n    }\r\n    function getBoard(uint _gameId) public view returns(uint8[] memory board) {\r\n        require(_gameId<=gameCount, \"Invalid Game ID.\");\r\n        Game memory g = games[_gameId];\r\n        return g.gameBoard;\r\n    }\r\n\r\n    function startPlay (uint _gameId) public payable {\r\n        require(admin!=msg.sender, \"Contract Owner cannot start or play a game.\");\r\n        require(_gameId<=gameCount, \"Invalid Game ID.\");\r\n        Game storage g = games[_gameId];\r\n        require(g.player1!=msg.sender, \"You are already player 1.\");\r\n        require(g.gameOver==false, \"Game already concluded!\");\r\n        g.player2 = payable(msg.sender);\r\n        admin.transfer(msg.value);\r\n    }\r\n\r\n    function takeTurn (uint _gameId, uint8 pos) public {\r\n        require(_gameId<=gameCount, \"Invalid Game ID.\");\r\n        Game storage g = games[_gameId];\r\n        require(g.gameOver==false, \"Game already concluded!\");\r\n        require(msg.sender == g.player1 || msg.sender == g.player2, \"Not a valid player.\");\r\n        require(g.lastMoveBy!=msg.sender, \"Cannot take 2 turn consecutively.\");\r\n        require(g.gameBoard[pos]==0, \"Position Already Taken.\");\r\n        address payable player = g.player1==msg.sender ? g.player1 : g.player2;\r\n        uint8 playerMove = g.player1==msg.sender ? 1 : 2;\r\n        g.gameBoard[pos] = playerMove;\r\n        g.movesCount = g.movesCount + 1;\r\n        g.lastMoveBy = msg.sender;\r\n        // check winner only if moveCount > 5, since it is the min chances reqd to decide a winner\r\n        if(g.movesCount >=5) {\r\n            if(isWinner(g.gameId, playerMove)) {\r\n                g.winner = player;\r\n                g.gameOver = true;\r\n            }\r\n        }\r\n        if(g.movesCount==9) {\r\n            g.gameOver = true;\r\n        }\r\n    }\r\n\r\n    function isWinner(uint _gameId, uint8 _playerMove) private view returns(bool) {\r\n        uint8[3][8] memory winningFilters = [\r\n            [0,1,2],[3,4,5],[6,7,8],  // rows\r\n            [0,3,6],[1,4,7],[2,5,8],  // columns\r\n            [0,4,8],[6,4,2]           // diagonals\r\n        ];\r\n\r\n        require(_gameId<=gameCount, \"Invalid Game ID.\");\r\n        Game storage g = games[_gameId];\r\n        uint8[] memory _board = g.gameBoard;\r\n\r\n        \r\n        for (uint8 i = 0; i < winningFilters.length; i++) {\r\n            uint8[3] memory filter = winningFilters[i];\r\n            if( _board[filter[0]]==_playerMove && _board[filter[1]]==_playerMove && _board[filter[2]]==_playerMove ) {\r\n                return true;\r\n            }\r\n        }\r\n        return false;\r\n    }\r\n\r\n    function settleGame(uint _id) public payable {\r\n        require(admin==msg.sender, \"Only Contract Owner can settle game\");\r\n        require(_id<=gameCount, \"Invalid Game ID.\");\r\n        Game storage g = games[_id];\r\n        require(g.gameOver==true, \"Cannot settle unfinished Game.\");\r\n        require(g.isSettled==false, \"Game already settled.\");\r\n        if(g.winner!=address(0)) {\r\n            (g.winner).transfer(msg.value);\r\n        }\r\n        else {\r\n            (g.player1).transfer((msg.value)/2);\r\n            (g.player2).transfer((msg.value)/2);\r\n        }\r\n        g.isSettled = true;\r\n    }\r\n}",
  "sourcePath": "E:/Assignment/tic_tac_toe-claystack/contracts/TicTacToe.sol",
  "compiler": {
    "name": "solc",
    "version": "0.8.4+commit.c7e474f2.Emscripten.clang"
  },
  "schemaVersion": "3.3.1",
  "updatedAt": "2021-04-24T23:48:48.450Z",
  "networkType": "ethereum",
  "devdoc": {
    "kind": "dev",
    "methods": {},
    "version": 1
  },
  "userdoc": {
    "kind": "user",
    "methods": {},
    "version": 1
  }
}